:10098500494E495449414C4953494E472E2E2E2E26
:1009950000444554454354494E4720414343494447
:1009A500454E540020564942524154494F4E3A2033
:1009B5004E4F202000444554454354494E47205648
:1009C5004942524154494F4E0020564942524154E2
:1009D500494F4E3A20594553200053454E44494E00
:1009E50047204D53472E2E2E2E2E003931383233C7
:1009F5003238303234004143434944454E54204453
:100A05004554454354454400393434313233333643
:100A1500333600202020204D53472053454E542087
:100A25002020200043414C4C494E472E2E2E2E2E81
:100A35002E2E2E2E0047534D204143434944454E0B
:100A4500542044455400415441542B434D47463DA1
:0F0A55003141542B434D47533D41544441544884
:100A64008B0A8A0B890CE4F510120C430510E5106F
:100A7400C3940240F47F0D120C4A120BFFE4F510EC
:100A8400900A4D120C460510E510C3940940F17FFD
:100A94000D120C4A120BFFE4F510E510900A569360
:100AA400FF120C4A0510E510C3940840ED7F221292
:100AB4000C4AAB0AAA0BA90C120BA5FF6010120C6E
:100AC4004A7401250CF50CE4350BF50B80E47F2208
:100AD400120C4A7F0D120C4A120BFFAB0DAA0EA981
:100AE4000F120BA5FF6010120C4A7401250FF50FAD
:100AF400E4350EF50E80E47F1A120C4A7F1E7E0048
:030B0400020C03DD
:100B07008B0A8A0B890CE4F510120C430510E510CB
:100B1700C3940240F47F0D120C4A120BFFE4F51048
:100B2700E510900A4D93FF120C4A0510E510C39487
:100B37000940ED7F0D120C4A120BFFE4F510E5108A
:100B4700900A5E93FF120C4A0510E510C394034008
:100B5700EDAB0AAA0BA90C120BA5FF6010120C4AE9
:100B67007401250CF50CE4350BF50B80E47F3B1283
:100B77000C4A7F0D120C4A120BFF7F647E00120C89
:100B870003E4F510E510900A6193FF120C4A051073
:0E0B9700E510C3940340ED7F287E00020C039E
:040BFF007F147E00E1
:100C0300E4FDFCD3ED9FEC9E5017758921758C4B49
:100C1300758AFDD28C308DFDC28D0DBD00010C8017
:010C2300E2EE
:010C240022AD
:070C4300900A4BE51093FF3E
:080C4A00C2998F993099FD2237
:0F0C5200759850758921758DFD758BFDD28E2299
:0E0C6100E4FFFE0FBF00010EBE17F8BF71F5D5
:010C6F002262
:100C25007F38120C707F0E120C707F01120C707FD2
:0E0C350006120C707F0C120C707F80020C7087
:0D0C70008F90C2A0C2A1D2A2120C61C2A23C
:010C7D002254
:0D0C7E008F90D2A0C2A1D2A2120C61C2A21E
:010C8B002246
:060BD4007BFF7A0979A9FC
:100BDA008B0A8A0B890CAB0AAA0BA90C120BA5600B
:100BEA0013050CE50C7002050B14F9120BA5FF1284
:050BFA000C7E80E222E8
:10080000120C52120C257F80120C707BFF7A097932
:1008100085120BDAE4F508F509AE08AF09E4FCFD32
:100820007B407A9CF9F8D3120BBE400A0509E50912
:1008300070E7050880E37F80120C707BFF7A0979EE
:1008400096120BDAE4F508F5090509E509700205C9
:1008500008B420F5E508B44EF07FC0120C70120BFE
:10086000D4E4F508F5090509E50970020508B42086
:10087000F5E508B44EF0D28020B203020978C280B8
:100880007F80120C707BFF7A0979BA120BDAE4F5DB
:1008900008F5090509E50970020508B420F5E50821
:1008A000B44EF07FC0120C707BFF7A0979CE120B28
:1008B000DAE4F508F509AE08AF09E4FCFD7B507AEF
:1008C000C3F9F8D3120BBE400A0509E50970E70524
:1008D0000880E37F01120C707F80120C707BFF7A1E
:1008E0000979DF120BDA750DFF750E09750FFB7BA9
:1008F000FF7A0979F0120A64750DFF750E09750FFC
:10090000FB7BFF7A0A790D120A647FC0120C707BA0
:10091000FF7A0A7918120BDAE4F508F5090509E5FA
:100920000970020508B4B8F5E508B40BF07F0112B0
:100930000C70E4F508F5090509E50970020508B42D
:10094000B8F5E508B40BF07F80120C707BFF7A0AD3
:100950007929120BDA7BFF7A0979F0120B077BFFFA
:100960007A0A790D120B077F80120C707BFF7A0ACE
:10097000793A120BDA020878D2807FC0120C70121A
:050980000BD402087811
:03000000020C8C63
:0C0C8C00787FE4F6D8FD758110020800A6
:100BA500BB010689828A83E0225002E722BBFE024E
:090BB500E32289828A83E4932281
:100BBE00EB9FF5F0EA9E42F0E99D42F0EC6480C8AE
:060BCE0064809845F0224E
:00000001FF
